:1000000007C1000033C1000031C100002FC1000052
:100010002DC100002BC1000029C1000027C1000034
:1000200025C1000023C1000021C100001FC1000044
:100030001DC100001BC1000019C1000017C1000054
:1000400015C1000013C1000011C100000FC1000064
:100050000DC100000BC1000009C10000EAC300008F
:1000600005C10000B0C3000085C30000FFC0000050
:10007000FDC00000FBC00000F9C00000F7C0000098
:10008000F5C00000F3C00000F1C00000EFC00000A8
:10009000EDC00000EBC00000E9C00000E7C00000B8
:1000A000E5C00000E3C00000E1C00000DFC00000C8
:1000B000DDC00000DBC00000D9C00000D7C00000D8
:1000C000D5C00000D3C00000D1C00000CFC00000E8
:1000D000CDC00000CBC00000C9C00000C7C00000F8
:1000E000C5C00000EC02EF02DE02E202E6022603D7
:1000F000F302F702FD02010305030B030F031303D1
:10010000260319031D03210300000A0B02090C0D2D
:100110000E080703040100000000000000000000BA
:1001200000000000000000000000000000000000CF
:10013000000000001211100000000000000000008C
:1001400000000000000000000000000000000000AF
:100150002200250028002B002E003100340002016F
:100160000000050108010B01000021002400270008
:100170002A002D00300033000101000004010701B6
:100180000A0105050505070508080808020202021C
:100190000A0A080804040404010101010101010123
:1001A0000303030303030303040707070C0C0C0CEE
:1001B0000C0C0C0C020202020606060606060606D7
:1001C0000B0B0B0B0B0B0B0B010210202008081064
:1001D00020401020408002010201080402010102B7
:1001E0000408102040808040201008040201800490
:1001F00002018040201008040201080402010102EB
:10020000040810204080010204081020408063048C
:1002100011241FBECFEFD1E2DEBFCDBF00E00CBF87
:1002200012E0A0E0B2E0EEEEFDE000E00BBF02C0A5
:1002300007900D92A832B107D9F723E0A8E2B2E007
:1002400001C01D92A937B207E1F711E0C8E0D1E083
:1002500000E005C021970109802FFE01BAD5C73003
:10026000D10780E00807B1F76DD3BFC5C9CE90E0D4
:10027000FC01E853FE4F2491FC01EE57FE4F8491A0
:10028000882399F090E0880F991FFC01E859FE4FF0
:10029000A591B491FC01E25BFE4F859194918FB7DB
:1002A000F894EC91E22BEC938FBF0895CF92DF92FC
:1002B000EF92FF920F931F932FB7F894C090920282
:1002C000D0909302E0909402F09095022FBFDC0151
:1002D000CB018C0D9D1DAE1DBF1D4FB7F894009135
:1002E00092021091930220919402309195024FBF97
:1002F0000C151D052E053F0528F080179107A20754
:10030000B30758F71F910F91FF90EF90DF90CF90B8
:100310000895CF92DF92EF92FF920F931F93CF93A6
:10032000DF936C017A018B01C0E0D0E0CE15DF05D0
:1003300089F0D8016D918D01D601ED91FC9101906C
:10034000F081E02DC6011995892B11F47E0102C0C0
:100350002196ECCFC701DF91CF911F910F91FF90B4
:10036000EF90DF90CF900895089580E090E0089599
:10037000FC01538D448D252F30E0842F90E0821BAB
:10038000930B541710F0CF96089501970895FC0130
:10039000918D828D981761F0828DDF01A80FB11DBC
:1003A0005D968C91928D9F5F9F73928F90E00895E0
:1003B0008FEF9FEF0895FC01918D828D981731F09A
:1003C000828DE80FF11D858D90E008958FEF9FEFEE
:1003D0000895FC01918D228D892F90E0805C9F4FC4
:1003E000821B91098F739927089586E992E0F1DFC6
:1003F00021E0892B09F420E0822F0895FC01848DEF
:10040000DF01A80FB11DA35ABF4F2C91848D90E03E
:1004100001968F739927848FA689B7892C93A08919
:10042000B1898C9180648C93938D848D981306C0D0
:100430000288F389E02D80818F7D80830895EF927B
:10044000FF920F931F93CF93DF93EC0181E0888F8E
:100450009B8D8C8D981305C0E889F989808185FD75
:1004600023C0F62E0B8D10E00F5F1F4F0F73112767
:10047000E02E8C8DE8120BC00FB607FCFACFE8898E
:10048000F989808185FFF5CFCE01B8DFF2CF8B8D62
:10049000FE01E80FF11DE35AFF4FF0820B8FEA894E
:1004A000FB898081806207C0EE89FF896083E889CB
:1004B000F98980818064808381E090E0DF91CF9131
:1004C0001F910F91FF90EF900895CF93DF93EC0170
:1004D000888D8823C1F0EA89FB89808185FD05C06C
:1004E000A889B9898C9186FD0EC00FB607FCF5CF9F
:1004F000808185FFF2CFA889B9898C9185FFEDCFE6
:10050000CE017CDFE8CFDF91CF91089580E090E0CD
:10051000892B19F06ADF811125C080E090E0892BDA
:1005200041F080E090E0892B21F00E9400008111D1
:100530001CC080E090E0892B41F080E090E0892BA6
:1005400021F00E940000811113C080E090E0892B0F
:10055000A1F080E090E0892B81F00E9400008111E1
:100560000AC008950E940000D8CF0E940000E1CF89
:100570000E940000EACF0C9400000895362F90E00E
:10058000FC01E85FFE4F4491FC01E853FE4F2491CB
:10059000FC01EE57FE4F9491992309F46AC044235D
:1005A00009F454C050E0FA013197E231F10508F046
:1005B0004DC08827EE58FF4F8F4F0BC480918000AD
:1005C0008F7707C0809180008F7D03C0809180006D
:1005D000877F809380003AC084B58F7702C084B54E
:1005E0008F7D84BD33C08091B0008F7703C0809130
:1005F000B0008F7D8093B00029C0809190008F77EC
:1006000007C0809190008F7D03C080919000877F0C
:10061000809390001BC08091A0008F7707C08091CD
:10062000A0008F7D03C08091A000877F8093A000F1
:100630000DC0809120018F7707C0809120018F7DB0
:1006400003C080912001877F80932001E92FF0E093
:10065000EE0FFF1FE25BFE4FA591B4918FB7F894A8
:10066000EC91311103C020952E2301C02E2B2C9329
:100670008FBF08953FB7F8948091290290912A0284
:10068000A0912B02B0912C0226B5A89B05C02F3F4C
:1006900019F00196A11DB11D3FBFBA2FA92F982FA8
:1006A0008827820F911DA11DB11DBC01CD0142E023
:1006B000660F771F881F991F4A95D1F708958F926B
:1006C0009F92AF92BF92CF92DF92EF92FF926B0117
:1006D0007C01D0DF4B015C01C114D104E104F104C1
:1006E000E9F0C8DFDC01CB0188199909AA09BB0927
:1006F000883E9340A105B10578F321E0C21AD108E4
:10070000E108F10888EE880E83E0981EA11CB11C58
:10071000C114D104E104F10421F7DECFFF90EF9082
:10072000DF90CF90BF90AF909F908F900895FC0185
:1007300020812EBDDC0131969C01260F371FE21768
:10074000F30741F051910DB407FEFDCF4EB55EBDEC
:100750004D93F5CF61507109FC01E60FF71F0DB401
:1007600007FEFDCF8EB58083089508958CBD9DBD95
:10077000089537D31F920F920FB60F9211240BB624
:100780000F922F933F934F935F936F937F938F932A
:100790009F93AF93BF93EF93FF9386E992E02EDE92
:1007A000FF91EF91BF91AF919F918F917F916F9149
:1007B0005F914F913F912F910F900BBE0F900FBE05
:1007C0000F901F9018951F920F920FB60F92112441
:1007D0000BB60F922F938F939F93EF93FF93E0911C
:1007E000A602F091A7028081E091AC02F091AD02E7
:1007F00082FD12C090818091AF028F5F8F73209134
:10080000B002821751F0E091AF02F0E0EA56FD4FDE
:10081000958F8093AF0201C08081FF91EF919F91EE
:100820008F912F910F900BBE0F900FBE0F901F90C6
:1008300018951F920F920FB60F9211242F933F938A
:100840008F939F93AF93BF93809192029091930265
:10085000A0919402B09195023091280223E0230FD9
:100860002D3720F40196A11DB11D05C026E8230FE8
:100870000296A11DB11D20932802809392029093AD
:100880009302A0939402B0939502809129029091D3
:100890002A02A0912B02B0912C020196A11DB11D3C
:1008A0008093290290932A02A0932B02B0932C02EA
:1008B000BF91AF919F918F913F912F910F900FBE5C
:1008C0000F901F901895E6E9F2E01382128288EEED
:1008D00093E0A0E0B0E084839583A683B78388E0AB
:1008E00092E09183808385EC90E09587848784EC07
:1008F00090E09787868780EC90E0918B808B81ECED
:1009000090E0938B828B82EC90E0958B848B86ECCD
:1009100090E0978B868B118E128E138E148EE3E3EC
:10092000F3E01682178210861186128613861486CB
:10093000158616861786108A118A128A138A148AD7
:10094000158A0895789484B5826084BD84B58160E9
:1009500084BD85B5826085BD85B5816085BD80918A
:100960006E00816080936E00109281008091810002
:1009700082608093810080918100816080938100FA
:10098000809180008160809380008091B1008460BC
:100990008093B1008091B00081608093B00080911D
:1009A000910082608093910080919100816080939A
:1009B0009100809190008160809390008091A100CF
:1009C00082608093A1008091A10081608093A1004A
:1009D0008091A00081608093A000809121018260BD
:1009E0008093210180912101816080932101809178
:1009F000200181608093200180917A00846080933F
:100A00007A0080917A00826080937A0080917A00E7
:100A1000816080937A0080917A00806880937A0068
:100A20001092C10010927503109276031092770312
:100A30001092780310923503109236031092370308
:100A40001092380368EB7BE080E090E02FDC68EEEA
:100A500073E080E090E033DEE091A602F091A7021F
:100A600082E08083E091A202F091A3021082E091E3
:100A7000A402F091A50280E180831092AE02E09181
:100A8000AA02F091AB0286E08083E091A802F09187
:100A9000A902808180618083E091A802F091A9027F
:100AA000808188608083E091A802F091A902808112
:100AB00080688083E091A802F091A90280818F7DF7
:100AC000808341E150E066E172E086E992E021DC5A
:100AD0006AE070E080E090E0E9DB85E3C8DB81E379
:100AE000C6DB80E3C4DB8FE2C2DB61E085E346DD89
:100AF00061E081E343DD61E080E340DD61E08FE2BE
:100B00003DDDCFB7F89480912D02811120C0E7EB35
:100B1000F1E08491EDEFF1E09491E82FF0E0EE0F39
:100B2000FF1FE859FE4FA591B491EC91E92319F408
:100B300061E085E323DD85E39ADB8CB580618CBDC4
:100B40008CB580648CBD84E392DB83E390DB809181
:100B50002D028F5F80932D02CFBFC12CD12C760147
:100B6000CA94C0E0D0E0CCD08E010E5C1D4FA7012E
:100B70009601F4D0F8016083C3D0A7019601EED0AE
:100B8000F8016183BDD0A7019601E8D0F801628326
:100B90002396C036D10539F780E591E0E7DD60E0C6
:100BA00085E3ECDC61E081E3E9DC61E080E3E6DC45
:100BB00061E08FE2E3DC65E170E082E392E0B7DDC3
:100BC00061E085E3DBDC80E591E0D0DD61E085E399
:100BD000D5DC60E081E3D2DC61E080E3CFDC61E082
:100BE0008FE2CCDC6FE070E087E492E0A0DD61E0B2
:100BF00081E3C4DC80E591E0B9DD61E085E3BEDC42
:100C000061E081E3BBDC60E080E3B8DC61E08FE2BF
:100C1000B5DC6EE170E086E592E089DD61E080E3BD
:100C2000ADDC80E591E0A2DD61E085E3A7DC61E079
:100C300081E3A4DC61E080E3A1DC60E08FE29EDC84
:100C40006EE170E084E792E072DD61E08FE296DCB5
:100C5000109231021092300210922F0210922E0246
:100C60006AE070E080E090E02ADD50DC7ACF8F927D
:100C70009F92AF92BF92CF92DF92EF92FF92CF936B
:100C8000DF93EC01688179818A819B81611571050F
:100C90008105910521F464E279ED8BE597E02DE182
:100CA00033EF41E050E05AD049015A019B01AC01B9
:100CB000A7EAB1E46FD06B017C01ACEEB4EFA50103
:100CC000940174D0DC01CB018C0D9D1DAE1DBF1DA8
:100CD000B7FF03C00197A109B04888839983AA830D
:100CE000BB83BC01CD019F77DF91CF91FF90EF9047
:100CF000DF90CF90BF90AF909F908F900895B7CF27
:100D000080E092E0B4CF6093000270930102809380
:100D10000202909303020895A1E21A2EAA1BBB1BA4
:100D2000FD010DC0AA1FBB1FEE1FFF1FA217B307B7
:100D3000E407F50720F0A21BB30BE40BF50B661FCD
:100D4000771F881F991F1A9469F760957095809591
:100D500090959B01AC01BD01CF010895052E97FB35
:100D600016F400940FD057FD05D0D6DF07FC02D053
:100D700046F408C050954095309521953F4F4F4F10
:100D80005F4F089590958095709561957F4F8F4F37
:100D90009F4F08950FD0A59F900DB49F900DA49FD5
:100DA000800D911D11240895B7FFF4CFF3DF821B4E
:100DB000930B0895A29FB001B39FC001A39F700D34
:100DC000811D1124911DB29F700D811D1124911D53
:100DD0000895EE0FFF1F881F8BBF0790F691E02D3F
:0E0DE000199481E090E0F89400C0F894FFCFE1
:100DEE0001000000000000001F028901B801650229
:100DFE00E901C701DB01564D4450565F317C305F2F
:080E0E00564D4450560D0A0038
:00000001FF
