:1000000015C1000043C1000041C100003FC1000014
:100010003DC100003BC1000039C1000037C10000F4
:1000200035C1000030C500002EC500002CC5000001
:100030002DC100002BC1000029C1000027C1000014
:1000400025C1000023C1000021C100001FC1000024
:100050001DC100001BC1000019C10000CAC400007E
:1000600090C5000090C4000065C400000FC10000EE
:100070000DC100000BC1000009C1000007C1000054
:1000800005C1000003C1000001C10000FFC0000065
:10009000FDC00000FBC00000F9C00000F7C0000078
:1000A000F5C00000F3C00000F1C00000EFC0000088
:1000B000EDC00000EBC00000E9C00000E7C0000098
:1000C000E5C00000E3C00000E1C00000DFC00000A8
:1000D000DDC00000DBC00000D9C00000D7C00000B8
:1000E000D5C00000D902DC02CB02CF02D302130339
:1000F000E002E402EA02EE02F202F802FC0200036D
:10010000130306030A030E03000021002400270046
:100110002A002D0030003300010100000401070116
:100120000A0100000A0B02090C0D0E080703040166
:1001300000000000000000000000000000000000BF
:10014000000000000000000000000000000012118C
:10015000100000000000000000000000000000008F
:100160000000000000000000000022002500280020
:100170002B002E00310034000201000005010801AF
:100180000B01000020002300260029002C002F0076
:100190003200000100000301060109010505050503
:1001A000070508080808020202020A0A08080404EF
:1001B000040401010101010101010303030303031D
:1001C0000303040707070C0C0C0C0C0C0C0C0202AC
:1001D000020206060606060606060B0B0B0B0B0BA9
:1001E0000B0B010210202008081020401020408036
:1001F00002010201080402010102040810204080EB
:100200008040201008040201800402018040201078
:1002100008040201080402010102040810204080C1
:100220000102040810204080FA05360911241FBE7F
:10023000CFEFD1E2DEBFCDBF00E00CBF23E0ACE3E7
:10024000B2E001C01D92AA3BB207E1F712E0A0E0C4
:10025000B2E0E2EBF5E100E00BBF02C007900D92C7
:10026000AC33B107D9F711E0C5E1D1E000E006C039
:1002700021970109802FFE010E947B09C431D1071B
:1002800080E00807A9F7A1D50C94C80AB9CECF928F
:10029000DF92EF92FF920F931F932FB7F894C090C5
:1002A000A502D090A602E090A702F090A8022FBF6E
:1002B000DC01CB018C0D9D1DAE1DBF1D4FB7F89409
:1002C0000091A5021091A6022091A7023091A802E8
:1002D0004FBF0C151D052E053F0528F0801791070F
:1002E000A207B30758F71F910F91FF90EF90DF908F
:1002F000CF900895CF92DF92EF92FF920F931F93CA
:10030000CF93DF936C017A018B01C0E0D0E0CE1572
:10031000DF0589F0D8016D918D01D601ED91FC9139
:100320000190F081E02DC6011995892B11F47E0111
:1003300002C02196ECCFC701DF91CF911F910F91A1
:10034000FF90EF90DF90CF900895FC01538D448D86
:10035000252F30E0842F90E0821B930B541710F070
:10036000CF96089501970895FC01918D828D98177D
:1003700061F0828DDF01A80FB11D5D968C91928D89
:100380009F5F9F73928F90E008958FEF9FEF089586
:10039000FC01918D828D981731F0828DE80FF11D4F
:1003A000858D90E008958FEF9FEF0895FC01918D6A
:1003B000228D892F90E0805C9F4F821B91098F7363
:1003C0009927089589EA92E0F1DF21E0892B09F469
:1003D00020E0822F0895FC01848DDF01A80FB11D5C
:1003E000A35ABF4F2C91848D90E001968F7399276B
:1003F000848FA689B7892C93A089B1898C91806458
:100400008C93938D848D981306C00288F389E02D18
:1004100080818F7D80830895EF92FF920F931F93C9
:10042000CF93DF93EC0181E0888F9B8D8C8D9813A7
:1004300005C0E889F989808185FD23C0F62E0B8DE2
:1004400010E00F5F1F4F0F731127E02E8C8DE81205
:100450000BC00FB607FCFACFE889F989808185FFC8
:10046000F5CFCE01B8DFF2CF8B8DFE01E80FF11D85
:10047000E35AFF4FF0820B8FEA89FB89808180620B
:1004800007C0EE89FF896083E889F98980818064EB
:10049000808381E090E0DF91CF911F910F91FF90D9
:1004A000EF900895CF93DF93EC01888D8823C1F0FE
:1004B000EA89FB89808185FD05C0A889B9898C916D
:1004C00086FD0EC00FB607FCF5CF808185FFF2CF09
:1004D000A889B9898C9185FFEDCFCE017CDFE8CF6B
:1004E000DF91CF91089580E090E0892B19F06ADFC9
:1004F000811125C080E090E0892B41F080E090E000
:10050000892B21F00E94000081111CC080E090E046
:10051000892B41F080E090E0892B21F00E940000BF
:10052000811113C080E090E0892BA1F080E090E081
:10053000892B81F00E94000081110AC008950E9459
:100540000000D8CF0E940000E1CF0E940000EACF57
:100550000C9400000895362F90E0FC01EE5DFE4FF4
:100560004491FC01EE51FE4F2491FC01E456FE4FF4
:100570009491992309F46AC0442309F454C050E0CB
:10058000FA013197E231F10508F04DC08827EE58A5
:10059000FF4F8F4FB0C6809180008F7707C080914A
:1005A00080008F7D03C080918000877F80938000D2
:1005B0003AC084B58F7702C084B58F7D84BD33C0C7
:1005C0008091B0008F7703C08091B0008F7D8093C1
:1005D000B00029C0809190008F7707C08091900073
:1005E0008F7D03C080919000877F809390001BC017
:1005F0008091A0008F7707C08091A0008F7D03C0FD
:100600008091A000877F8093A0000DC08091200181
:100610008F7707C0809120018F7D03C080912001DA
:10062000877F80932001E92FF0E0EE0FFF1FE8594C
:10063000FE4FA591B4918FB7F894EC91311103C09E
:1006400020952E2301C02E2B2C938FBF0895CF937E
:10065000DF9390E0FC01EE51FE4F2491FC01E45643
:10066000FE4F8491882361F190E0880F991FFC016F
:10067000E85FFE4FC591D491FC01E859FE4FA5916A
:10068000B491611109C09FB7F894888120958223A5
:100690008883EC912E230BC0623061F49FB7F894ED
:1006A0003881822F809583238883EC912E2B2C9385
:1006B0009FBF06C08FB7F894E8812E2B28838FBF89
:1006C000DF91CF9108953FB7F89480917D0290918A
:1006D0007E02A0917F02B091800226B5A89B05C042
:1006E0002F3F19F00196A11DB11D3FBFBA2FA92FB1
:1006F000982F8827820F911DA11DB11DBC01CD012E
:1007000042E0660F771F881F991F4A95D1F7089519
:1007100020918302309184022817390771F4909157
:10072000810280918202981741F0E0918102F0E00D
:10073000E45CFD4F808190E008958FEF9FEF089576
:1007400008951F93CF93DF93DC015C962D913C912C
:100750005D972115310539F481E090E013969C9363
:100760008E9312973DC05196ED91FC915297509601
:100770009C915097892F80951FB75E964C915E97FC
:1007800041FB772770F941FD6095F894408177230C
:1007900011F0492B01C048234083E9012197F1F76B
:1007A00048E0508160FF02C0592B01C0582350839C
:1007B000E9012197F1F76695415099F7772321F0E8
:1007C00090818923808303C08081982B90831FBFF1
:1007D0005C968D919C915D970197F1F721E030E057
:1007E000C901DF91CF911F9108952091830230912B
:1007F00084022817390761F48091820220918102D6
:1008000090E0805C9F4F821B910960E470E060C5BE
:1008100080E090E0089520918302309184022817AF
:100820003907B9F49091810280918202981789F07A
:10083000E0918102F0E0E45CFD4F80812091810233
:1008400030E02F5F3F4F2F7333272093810290E0DA
:1008500008958FEF9FEF0895E0918302F091840255
:10086000E817F90769F4A389B4899C918589809573
:1008700089238C93109284021092830281E0089560
:1008800080E00895089580E090E00895009761F079
:10089000FC0101900020E9F73197AF01481B590B8B
:1008A000BC0189EA92E026CD80E090E00895CF92E5
:1008B000DF92EF92FF920F931F93CF93DF93CDB709
:1008C000DEB7A1970FB6F894DEBF0FBECDBF282FBD
:1008D00030E040E050E019A28E010F5D1F4F8AE02A
:1008E000C82ED12CE12CF12CCA01B901A701960127
:1008F000CDD4605DF80162938F012115310541056A
:10090000510591F7CF01C2DF8C0189E392E0BEDF90
:10091000800F911FA1960FB6F894DEBF0FBECDBF1A
:10092000DF91CF911F910F91FF90EF90DF90CF90CB
:1009300008952AD61F920F920FB60F9211240BB66C
:100940000F922F933F934F935F936F937F938F9368
:100950009F93AF93BF93EF93FF9389EA92E03BDDC0
:10096000FF91EF91BF91AF919F918F917F916F9187
:100970005F914F913F912F910F900BBE0F900FBE43
:100980000F901F9018951F920F920FB60F9211247F
:100990000BB60F922F938F939F93EF93FF93E0915A
:1009A000B902F091BA028081E091BF02F091C002D9
:1009B00082FD12C090818091C2028F5F8F7320915F
:1009C000C302821751F0E091C202F0E0E755FD4FFB
:1009D000958F8093C20201C08081FF91EF919F911A
:1009E0008F912F910F900BBE0F900FBE0F901F9005
:1009F00018951F920F920FB60F9211242F933F93C9
:100A00008F939F93AF93BF938091A5029091A6027D
:100A1000A091A702B091A80230917C0223E0230F9D
:100A20002D3720F40196A11DB11D05C026E8230F26
:100A30000296A11DB11D20937C028093A502909384
:100A4000A602A093A702B093A80280917D02909184
:100A50007E02A0917F02B09180020196A11DB11D7E
:100A600080937D0290937E02A0937F02B0938002D8
:100A7000BF91AF919F918F913F912F910F900FBE9A
:100A80000F901F9018951F920F920FB60F9211247E
:100A90000BB60F922F933F934F935F936F937F9378
:100AA0008F939F93AF93BF93EF93FF93E091830254
:100AB000F0918402309709F451C0968DA685B785D0
:100AC000858591FF04C09C91892329F447C09C919E
:100AD000892309F043C0A389B4899C9185898095B5
:100AE00089238C93868997890197F1F7608D718DA1
:100AF000A685B785558538E020E0CB010197F1F751
:100B0000822F90E095958795282F4C91452309F0E9
:100B10002068315091F7868D81FD20958091820269
:100B200090E001968F73992730918102381749F030
:100B3000A0918202B0E0A45CBD4F2C93809382020E
:100B400003C0868D8160868F828D938D0197F1F72A
:100B5000A389B4899C918589892B8C93FF91EF910E
:100B6000BF91AF919F918F917F916F915F914F91C5
:100B70003F912F910F900BBE0F900FBE0F901F90C3
:100B800018951F920F920FB60F9211240BB60F9269
:100B90002F933F934F935F936F937F938F939F9385
:100BA000AF93BF93CF93EF93FF93CEB58C2F7FDEA0
:100BB000809185028E3150F4E091850281E08E0FA4
:100BC00080938502F0E0EA57FD4FC083FF91EF91DB
:100BD000CF91BF91AF919F918F917F916F915F91D5
:100BE0004F913F912F910F900BBE0F900FBE0F9022
:100BF0001F9018951092AC021092AB0288EE93E011
:100C0000A0E0B0E08093AD029093AE02A093AF025B
:100C1000B093B0022AE032E03093AA022093A902F6
:100C200025EC30E03093B6022093B50224EC30E09E
:100C30003093B8022093B70220EC30E03093BA0230
:100C40002093B90221EC30E03093BC022093BB0228
:100C500022EC30E03093BE022093BD0226EC30E05F
:100C60003093C0022093BF021092C2021092C302BE
:100C70001092C4021092C50210924C0310924D03C0
:100C800010924E0310924F03109250031092510392
:100C90001092520310925303109254031092550372
:100CA0001092560310925703109258031092590352
:100CB00010925A0310925B0310929A0310929903B8
:100CC00080939B0390939C03A0939D03B0939E03FA
:100CD0008CE192E090939803809397031092AE0377
:100CE0001092AD031092B0031092AF031092B203B2
:100CF0001092B1031092B4031092B3036091B50344
:100D00006E7F6D7F6093B5036695617081E06827A3
:100D100086E021DC61E086E09ADCE8EEF1E0E49137
:100D2000E093A703E2EAF1E0E491F0E0EE0FFF1FA9
:100D3000E859FE4F859194919093A9038093A8035D
:100D400060E08FEF84DC8091B50381FD03C061E03A
:100D50008FEF01DC8FEF8093A303E1EEF2E0E491EB
:100D6000E093A403EBE9F2E0E491F0E0EE0FFF1F63
:100D7000EE57FE4F859194919093A6038093A5031F
:100D80008AE090E090938D0380938C0310928E0301
:100D90001092910310929203109293031092940375
:100DA00087E993E090939603809395038EE190E01A
:100DB000BED29093900380938F03009729F02EE189
:100DC000FC0111922A95E9F70895789484B5826020
:100DD00084BD84B5816084BD85B5826085BD85B5DF
:100DE000816085BD80916E00816080936E0010925D
:100DF00081008091810082608093810080918100D8
:100E00008160809381008091800081608093800068
:100E10008091B10084608093B1008091B0008160C6
:100E20008093B000809191008260809391008091C6
:100E30009100816080939100809190008160809307
:100E400090008091A10082608093A1008091A10018
:100E500081608093A1008091A00081608093A000B8
:100E60008091210182608093210180912101816024
:100E700080932101809120018160809320018091E5
:100E80007A00846080937A0080917A0082608093F7
:100E90007A0080917A00816080937A0080917A0054
:100EA000806880937A001092C1001092880310929B
:100EB000890310928A0310928B03109248031092B8
:100EC000490310924A0310924B0368EB7BE080E0E9
:100ED00090E0DDD9F8DB4B015C0148EEC42E43E025
:100EE000D42EE12CF12CEFDBDC01CB018819990920
:100EF000AA09BB09883E9340A105B10558F021E03D
:100F0000C21AD108E108F10888EE880E83E0981E25
:100F1000A11CB11CC114D104E104F10421F7E0913A
:100F2000B902F091BA0282E08083E091B502F091BB
:100F3000B6021082E091B702F091B80280E180839E
:100F40001092C102E091BD02F091BE0286E0808362
:100F5000E091BB02F091BC02808180618083E091CE
:100F6000BB02F091BC02808188608083E091BB026B
:100F7000F091BC02808180688083E091BB02F09197
:100F8000BC0280818F7D80838AE292E07FDC6AE010
:100F900070E080E090E07BD91092B2031092B10330
:100FA0001092B0031092AF031092AE031092AD03F3
:100FB0008FE190E09093B4038093B3038091A303F7
:100FC00096EF980F943048F02EEC280F243028F03C
:100FD00022EC280F283008F06EC021E030E030937A
:100FE000AE032093AD032DE130E03093B0032093A6
:100FF000AF032DE030E03093B2032093B10394307F
:1010000060F02EEC280F243040F022EC280F28301E
:1010100008F424C1A0E0B0E023C1A8E6B0E0E8E60F
:10102000F0E02081943018F08E53883010F081E089
:1010300001C084E0822B8C938091A30396EF980FDC
:10104000943058F02EEC280F243038F022EC280F82
:10105000283030F020E030E005C02BE630E002C060
:101060002DE630E03093AB032093AA03943010F4C4
:101070009AEF0BC0823381F0833381F0843381F0A7
:1010800092EC980F983070F492EC980F81E001C0C8
:10109000880F9A95EAF707C088E005C084E003C08E
:1010A00082E001C081E08093AC038091B303909112
:1010B000B4030197F1F78091B1039091B203892BAA
:1010C00019F18091830290918402A3E087399A07F5
:1010D000D9F0009709F0C0DB8091B5038E7F809333
:1010E000B503109282021092810287E993E09093F7
:1010F000840280938302E091AA03F091AB03908174
:101100008091AC03892B808360E085E3A0DA61E005
:1011100082E39DDA8CB580648CBD8CB58F7E8CBDEE
:101120008CB580688CBD61E086E091DA30E5D32E25
:10113000CC24C3948091A402882309F48DC0DCBC24
:10114000CDBCE12CF12C00E010E0E701CA57DD4FE7
:101150009A812981888140918C0350918D030417D5
:10116000150748F4E0918F03F0919003EE0DFF1DF9
:101170008083218392839BDB898199DB8A8197DB42
:101180000F5F1F4FB3E0EB0EF11C0A301105E9F6BB
:1011900080918F0390919003892B09F459C080911D
:1011A0008C0390918D03EC01CC0FDD1FC80FD91F6C
:1011B0008ADA009191031091920320919303309168
:1011C0009403DC01CB01801B910BA20BB30B893E76
:1011D0009340A105B10560F3F0908E03F11011C0AA
:1011E0008091950390919603DC01ED91FC916091C3
:1011F0008F03709190030280F381E02DAE01199569
:101200001EC000E010E00C171D07C9F08091950387
:1012100090919603E0918F03F0919003E00FF11FFE
:101220002081DC01ED91FC912F9D90011124019012
:10123000F081E02D632F19950F5F1F4FE4CF43DA44
:10124000609391037093920380939303909394031C
:10125000109285021092A40246D96CCFA8E6B0E0A5
:10126000283008F4DCCEE0E0F0E0DBCE80918F03A4
:1012700090919003009709F0EFD08CE192E0909369
:1012800098038093970387E993E0E6CAA1E21A2EB8
:10129000AA1BBB1BFD010DC0AA1FBB1FEE1FFF1F1A
:1012A000A217B307E407F50720F0A21BB30BE40B6A
:1012B000F50B661F771F881F991F1A9469F76095B1
:1012C0007095809590959B01AC01BD01CF0108956B
:1012D00097FB072E16F4009406D077FD08D013D0A4
:1012E00007FC05D03EF4909581959F4F0895709529
:1012F00061957F4F0895EE0FFF1F881F8BBF0790EA
:10130000F691E02D1994AA1BBB1B51E107C0AA1F3F
:10131000BB1FA617B70710F0A61BB70B881F991F96
:101320005A95A9F780959095BC01CD010895CF936A
:10133000DF938230910510F482E090E0E091B803F1
:10134000F091B90320E030E0C0E0D0E0309711F137
:101350004081518148175907C0F04817590761F477
:1013600082819381209719F09B838A832BC090936D
:10137000B9038093B80326C02115310519F042172F
:10138000530718F49A01BE01DF01EF010280F381D7
:10139000E02DDCCF2115310509F1281B390B243054
:1013A000310590F412968D919C91139761157105FA
:1013B00021F0FB019383828304C09093B90380934F
:1013C000B803FD01329644C0FD01E20FF31F819383
:1013D0009193225031092D933C933AC02091B6034A
:1013E0003091B703232B41F4209102023091030284
:1013F0003093B7032093B60320910002309101028D
:101400002115310541F42DB73EB7409104025091AA
:101410000502241B350BE091B603F091B703E217E8
:10142000F307A0F42E1B3F0B2817390778F0AC0107
:101430004E5F5F4F2417350748F04E0F5F1F5093E4
:10144000B7034093B6038193919302C0E0E0F0E0CC
:10145000CF01DF91CF9108950F931F93CF93DF9327
:10146000009709F48CC0FC0132971382128200911C
:10147000B8031091B9030115110581F42081318160
:10148000820F931F2091B6033091B70328173907B5
:1014900079F5F093B703E093B60371C0D80140E04B
:1014A00050E0AE17BF0750F412962D913C91139760
:1014B000AD012115310509F1D901F3CF9D01DA0103
:1014C0003383228360817181860F971F8217930770
:1014D00069F4EC0128813981260F371F2E5F3F4FB9
:1014E000318320838A819B8193838283452B29F4D6
:1014F000F093B903E093B80342C01396FC93EE93C4
:101500001297ED01499159919E01240F351FE21761
:10151000F30771F480819181840F951F02961196D3
:101520009C938E938281938113969C938E931297B2
:10153000E0E0F0E0D80112968D919C91139700970E
:1015400019F0F8018C01F6CF8D919C9198012E5FD6
:101550003F4F820F931F2091B6033091B703281796
:10156000390769F4309729F41092B9031092B8033F
:1015700002C0138212821093B7030093B603DF9167
:10158000CF911F910F91089581E090E0F89400C0F1
:1015900011E0C5E1D1E000E005C0802FFE01ABDE27
:1015A0002196011DC631D10780E00807B1F7F894F4
:0215B000FFCF6B
:1015B2000000BA038000000000000C027A01A501BD
:1015C2005202D601B401C80100000000A1037A0151
:1015D2004304A003F5030B048803564D4450565FA1
:0C15E200317C305F564D4450560D0A001D
:00000001FF
