:1000000015C1000043C1000041C100003FC1000014
:100010003DC100003BC1000039C1000037C10000F4
:1000200035C1000017C5000015C5000013C500004C
:100030002DC100002BC1000029C1000027C1000014
:1000400025C1000023C1000021C100001FC1000024
:100050001DC100001BC1000019C10000B1C4000097
:1000600077C5000077C400004CC400000FC1000039
:100070000DC100000BC1000009C1000007C1000054
:1000800005C1000003C1000001C10000FFC0000065
:10009000FDC00000FBC00000F9C00000F7C0000078
:1000A000F5C00000F3C00000F1C00000EFC0000088
:1000B000EDC00000EBC00000E9C00000E7C0000098
:1000C000E5C00000E3C00000E1C00000DFC00000A8
:1000D000DDC00000DBC00000D9C00000D7C00000B8
:1000E000D5C00000A602A90298029C02A002E0026C
:1000F000AD02B102B702BB02BF02C502C902CD0206
:10010000E002D302D702DB0200000A0B02090C0D49
:100110000E080703040100000000000000000000BA
:1001200000000000000000000000000000000000CF
:10013000000000001211100000000000000000008C
:1001400000000000000000000000000000000000AF
:100150002100240027002A002D0030003300010177
:100160000000040107010A01000022002500280008
:100170002B002E00310034000201000005010801AF
:100180000B01000020002300260029002C002F0076
:100190003200000100000301060109010505050503
:1001A000070508080808020202020A0A08080404EF
:1001B000040401010101010101010303030303031D
:1001C0000303040707070C0C0C0C0C0C0C0C0202AC
:1001D000020206060606060606060B0B0B0B0B0BA9
:1001E0000B0B010210202008081020401020408036
:1001F00002010201080402010102040810204080EB
:100200008040201008040201800402018040201078
:1002100008040201080402010102040810204080C1
:100220000102040810204080EC05470A11241FBE7B
:10023000CFEFD1E2DEBFCDBF00E00CBF23E0AAE5E7
:10024000B2E001C01D92A23DB207E1F712E0A0E0CA
:10025000B2E0E4EDF7E100E00BBF02C007900D92C1
:10026000AA35B107D9F711E0C5E1D1E000E006C039
:1002700021970109802FFE010E948C0AC431D10709
:1002800080E00807A9F793D50C94D90BB9CECF928B
:10029000DF92EF92FF920F931F93CF93DF936C0146
:1002A0007A018B01C0E0D0E0CE15DF0589F0D801DE
:1002B0006D918D01D601ED91FC910190F081E02DC1
:1002C000C6011995892B11F47E0102C02196ECCF4D
:1002D000C701DF91CF911F910F91FF90EF90DF90B9
:1002E000CF900895FC01538D448D252F30E0842F4D
:1002F00090E0821B930B541710F0CF96089501974E
:100300000895FC01918D828D981761F0828DDF0137
:10031000A80FB11D5D968C91928D9F5F9F73928FF8
:1003200090E008958FEF9FEF0895FC01918D828DED
:10033000981731F0828DE80FF11D858D90E00895BA
:100340008FEF9FEF0895FC01918D228D892F90E012
:10035000805C9F4F821B91098F739927089581ECD0
:1003600092E0F1DF21E0892B09F420E0822F08954B
:10037000FC01848DDF01A80FB11DA35ABF4F2C9142
:10038000848D90E001968F739927848FA689B78911
:100390002C93A089B1898C9180648C93938D848DEA
:1003A000981306C00288F389E02D80818F7D8083B9
:1003B0000895EF92FF920F931F93CF93DF93EC0179
:1003C00081E0888F9B8D8C8D981305C0E889F98911
:1003D000808185FD23C0F62E0B8D10E00F5F1F4F2F
:1003E0000F731127E02E8C8DE8120BC00FB607FC9F
:1003F000FACFE889F989808185FFF5CFCE01B8DF92
:10040000F2CF8B8DFE01E80FF11DE35AFF4FF08212
:100410000B8FEA89FB898081806207C0EE89FF89A2
:100420006083E889F98980818064808381E090E03D
:10043000DF91CF911F910F91FF90EF900895CF938F
:10044000DF93EC01888D8823C1F0EA89FB898081E4
:1004500085FD05C0A889B9898C9186FD0EC00FB6AF
:1004600007FCF5CF808185FFF2CFA889B9898C91EF
:1004700085FFEDCFCE017CDFE8CFDF91CF910895EE
:1004800080E090E0892B19F06ADF811125C080E0BF
:1004900090E0892B41F080E090E0892B21F00E94D0
:1004A000000081111CC080E090E0892B41F080E0C9
:1004B00090E0892B21F00E940000811113C080E0A0
:1004C00090E0892BA1F080E090E0892B81F00E94E0
:1004D000000081110AC008950E940000D8CF0E9438
:1004E0000000E1CF0E940000EACF0C9400000895C4
:1004F000362F90E0FC01E85FFE4F4491FC01EE5185
:10050000FE4F2491FC01E456FE4F9491992309F487
:100510006AC0442309F454C050E0FA013197E23133
:10052000F10508F04DC08827EE58FF4F8F4FF4C7F4
:10053000809180008F7707C0809180008F7D03C0FD
:1005400080918000877F809380003AC084B58F7748
:1005500002C084B58F7D84BD33C08091B0008F7799
:1005600003C08091B0008F7D8093B00029C080913E
:1005700090008F7707C0809190008F7D03C080919D
:100580009000877F809390001BC08091A0008F77A0
:1005900007C08091A0008F7D03C08091A000877F5D
:1005A0008093A0000DC0809120018F7707C08091BB
:1005B00020018F7D03C080912001877F80932001DF
:1005C000E92FF0E0EE0FFF1FE859FE4FA591B4911F
:1005D0008FB7F894EC91311103C020952E2301C000
:1005E0002E2B2C938FBF0895CF93DF9390E0FC01C7
:1005F000EE51FE4F2491FC01E456FE4F8491882376
:1006000061F190E0880F991FFC01E25BFE4FC591FC
:10061000D491FC01E859FE4FA591B491611109C034
:100620009FB7F8948881209582238883EC912E23AC
:100630000BC0623061F49FB7F8943881822F8095A7
:1006400083238883EC912E2B2C939FBF06C08FB7FA
:10065000F894E8812E2B28838FBFDF91CF910895E6
:100660003FB7F89480919F029091A002A091A102BF
:10067000B091A20226B5A89B05C02F3F19F00196A4
:10068000A11DB11D3FBFBA2FA92F982F8827820F18
:10069000911DA11DB11DBC01CD0142E0660F771F68
:1006A000881F991F4A95D1F708952FB7F894609144
:1006B0009B0270919C0280919D0290919E022FBF9F
:1006C00008952091A5023091A6022817390771F4E8
:1006D0009091A3028091A402981741F0E091A302A7
:1006E000F0E0E65AFD4F808190E008958FEF9FEF94
:1006F000089508951F93CF93DF93DC015C962D91AD
:100700003C915D972115310539F481E090E0139615
:100710009C938E9312973DC05196ED91FC91529708
:1007200050969C915097892F80951FB75E964C915B
:100730005E9741FB772770F941FD6095F894408101
:10074000772311F0492B01C048234083E901219709
:10075000F1F748E0508160FF02C0592B01C05823D7
:100760005083E9012197F1F76695415099F7772376
:1007700021F090818923808303C08081982B90830E
:100780001FBF5C968D919C915D970197F1F721E0D9
:1007900030E0C901DF91CF911F9108952091A5020A
:1007A0003091A6022817390761F48091A4022091A4
:1007B000A30290E0805C9F4F821B910960E470E08F
:1007C00098C680E090E008952091A5023091A6029D
:1007D00028173907B9F49091A3028091A4029817C1
:1007E00089F0E091A302F0E0E65AFD4F808120916C
:1007F000A30230E02F5F3F4F2F7333272093A302D4
:1008000090E008958FEF9FEF0895E091A502F09199
:10081000A602E817F90769F4A389B4899C91858930
:10082000809589238C931092A6021092A50281E0F4
:10083000089580E00895089580E090E0089500977D
:1008400061F0FC0101900020E9F73197AF01481BEE
:10085000590BBC0181EC92E01ACD80E090E0089544
:100860008F929F92AF92BF920F931F93CF93DF937C
:10087000CDB7DEB7A1970FB6F894DEBF0FBECDBFE0
:1008800019A2423008F44AE08E010F5D1F4F842EFA
:10089000912CA12CB12CA501940109D6E62FB90108
:1008A000CA0101501109EA3014F4E05D01C0E95CAD
:1008B000D801EC93232B242B252B69F7C801BFDF2C
:1008C000A1960FB6F894DEBF0FBECDBFDF91CF91DA
:1008D0001F910F91BF90AF909F908F900895CF93ED
:1008E000DF93682F70E080E090E04AE0B9DFEC0130
:1008F00089E392E0A4DF8C0F9D1FDF91CF910895D3
:1009000054D71F920F920FB60F9211240BB60F926D
:100910002F933F934F935F936F937F938F939F9307
:10092000AF93BF93EF93FF9381EC92E021DDFF91B2
:10093000EF91BF91AF919F918F917F916F915F9157
:100940004F913F912F910F900BBE0F900FBE0F90C4
:100950001F9018951F920F920FB60F9211240BB68D
:100960000F922F938F939F93EF93FF93E091D10278
:10097000F091D2028081E091D702F091D80282FDFD
:1009800012C090818091DA028F5F8F732091DB0219
:10099000821751F0E091DA02F0E0EF53FD4F958FAE
:1009A0008093DA0201C08081FF91EF919F918F9136
:1009B0002F910F900BBE0F900FBE0F901F901895A8
:1009C0001F920F920FB60F9211242F933F938F9384
:1009D0009F93AF93BF9380919B0290919C02A091B3
:1009E0009D02B0919E0230919A0223E0230F2D3791
:1009F00020F40196A11DB11D05C026E8230F029623
:100A0000A11DB11D20939A0280939B0290939C029A
:100A1000A0939D02B0939E0280919F029091A002AC
:100A2000A091A102B091A2020196A11DB11D8093D7
:100A30009F029093A002A093A102B093A202BF9143
:100A4000AF919F918F913F912F910F900FBE0F907B
:100A50001F9018951F920F920FB60F9211240BB68C
:100A60000F922F933F934F935F936F937F938F9347
:100A70009F93AF93BF93EF93FF93E091A502F09103
:100A8000A602309709F451C0968DA685B785858555
:100A900091FF04C09C91892329F447C09C9189232C
:100AA00009F043C0A389B4899C91858980958923E5
:100AB0008C93868997890197F1F7608D718DA68552
:100AC000B785558538E020E0CB010197F1F7822FFB
:100AD00090E095958795282F4C91452309F0206843
:100AE000315091F7868D81FD20958091A40290E090
:100AF00001968F7399273091A302381749F0A0917E
:100B0000A402B0E0A65ABD4F2C938093A40203C068
:100B1000868D8160868F828D938D0197F1F7A389F1
:100B2000B4899C918589892B8C93FF91EF91BF911A
:100B3000AF919F918F917F916F915F914F913F9175
:100B40002F910F900BBE0F900FBE0F901F90189516
:100B50001F920F920FB60F9211240BB60F922F9384
:100B60003F934F935F936F937F938F939F93AF9335
:100B7000BF93CF93EF93FF93CEB58C2FB0DE8091D0
:100B8000A8028F3050F4E091A80281E08E0F80938C
:100B9000A802F0E0E755FD4FC083CF3F49F481E064
:100BA0008093B80280E592E04ADE89E392E047DE76
:100BB000FF91EF91CF91BF91AF919F918F917F91D5
:100BC0006F915F914F913F912F910F900BBE0F90BE
:100BD0000FBE0F901F9018951092C4021092C3027E
:100BE00088EE93E0A0E0B0E08093C5029093C60247
:100BF000A093C702B093C8022AE032E03093C20249
:100C00002093C10225EC30E03093CE022093CD0238
:100C100024EC30E03093D0022093CF0220EC30E07F
:100C20003093D2022093D10221EC30E03093D402F1
:100C30002093D30222EC30E03093D6022093D502E9
:100C400026EC30E03093D8022093D7021092DA02DB
:100C50001092DB021092DC021092DD02109264030B
:100C60001092650310926603109267031092680356
:100C70001092690310926A0310926B0310926C0336
:100C800010926D0310926E0310926F031092700316
:100C90001092710310927203109273031092B203B8
:100CA0001092B1038093B3039093B403A093B50360
:100CB000B093B6038CE192E09093B0038093AF03BE
:100CC0001092C6031092C5031092C8031092C70376
:100CD0001092CA031092C9031092CC031092CB0356
:100CE0006091CD036E7F6D7F6093CD0366956170DB
:100CF00081E0682786E0FCDB61E086E075DCE8EEF9
:100D0000F1E0E491E093BF03E2EAF1E0E491F0E086
:100D1000EE0FFF1FE859FE4F859194919093C10308
:100D20008093C00360E08FEF5FDC8091CD0381FD95
:100D300003C061E08FEFDCDB8FEF8093BB03E1EE5C
:100D4000F2E0E491E093BC03EBE9F2E0E491F0E03F
:100D5000EE0FFF1FEE57FE4F859194919093BE03C7
:100D60008093BD0385E090E09093A5038093A40356
:100D70001092A6031092A9031092AA031092AB033B
:100D80001092AC038FEA93E09093AE038093AD038F
:100D90008FE090E0DDD39093A8038093A7030097A2
:100DA00029F02FE0FC0111922A95E9F70895789433
:100DB00084B5826084BD84B5816084BD85B5826060
:100DC00085BD85B5816085BD80916E008160809311
:100DD0006E0010928100809181008260809381007A
:100DE000809181008160809381008091800081608A
:100DF000809380008091B10084608093B1008091E5
:100E0000B00081608093B0008091910082608093F7
:100E10009100809191008160809391008091900079
:100E20008160809390008091A10082608093A100F6
:100E30008091A10081608093A1008091A0008160D9
:100E40008093A00080912101826080932101809194
:100E50002101816080932101809120018160809334
:100E6000200180917A00846080937A0080917A00DA
:100E7000826080937A0080917A00816080937A000A
:100E800080917A00806880937A001092C10010925D
:100E9000A0031092A1031092A2031092A303109238
:100EA0006003109261031092620310926303FDDBF2
:100EB0006B017C014B015C0128EB820E2BE0921E42
:100EC000A11CB11CF2DB6C157D058E059F0528F079
:100ED00086169706A806B906A8F7C2DB4B015C0187
:100EE00068EEC62E63E0D62EE12CF12CB9DBDC01D6
:100EF000CB0188199909AA09BB09883E9340A1052D
:100F0000B10558F031E0C31AD108E108F10848EE04
:100F1000840E43E0941EA11CB11CC114D104E10451
:100F2000F10421F7E091D102F091D20282E08083B6
:100F3000E091CD02F091CE021082E091CF02F091CB
:100F4000D00280E180831092D902E091D502F09125
:100F5000D60286E08083E091D302F091D4028081B2
:100F600080618083E091D302F091D4028081886017
:100F70008083E091D302F091D402808180688083E5
:100F8000E091D302F091D40280818F7D80838AE248
:100F900092E055DC8ADB6B017C014B015C018AE04D
:100FA000880E911CA11CB11C80DB6C157D058E0583
:100FB0009F0528F086169706A806B906A8F710928E
:100FC000CA031092C9031092C8031092C70310926B
:100FD000C6031092C5038FE190E09093CC038093F9
:100FE000CB038091BB0396EF980F943048F02EEC22
:100FF000280F243028F022EC280F283008F06EC08B
:1010000021E030E03093C6032093C5032DE130E0AA
:101010003093C8032093C7032DE030E03093CA0318
:101020002093C903943060F02EEC280F243040F058
:1010300022EC280F283008F422C2A0E0B0E021C240
:10104000A8E6B0E0E8E6F0E02081943018F08E5396
:10105000883010F081E001C084E0822B8C93809175
:10106000BB0396EF980F943058F02EEC280F2430E5
:1010700038F022EC280F283030F020E030E005C0B6
:101080002BE630E002C02DE630E03093C30320931E
:10109000C203943010F49AEF0BC0823381F0833393
:1010A00081F0843381F092EC980F983070F492ECD8
:1010B000980F81E001C0880F9A95EAF707C088E091
:1010C00005C084E003C082E001C081E08093C403D6
:1010D0008091CB039091CC030197F1F78091C903E4
:1010E0009091CA03892B19F18091A5029091A602D3
:1010F000A3E08F3A9A07D9F0009709F086DB809138
:10110000CD038E7F8093CD031092A4021092A30290
:101110008FEA93E09093A6028093A502E091C20328
:10112000F091C30390818091C403892B8083CFB752
:10113000F8948091A702811123C0E1EDF1E0849140
:10114000E7E1F2E09491E82FF0E0EE0FFF1FE25BA1
:10115000FE4FA591B491EC91E92319F461E085E388
:10116000C7D961E085E340DA8CB580618CBD8CB570
:1011700080648CBD61E084E337DA61E083E334DAD4
:101180008091A7028F5F8093A702CFBF60E085E3C5
:101190002BDA61E082E328DA8CB580648CBD8CB5F3
:1011A0008F7E8CBD8CB580688CBD61E086E01CDADA
:1011B00034EFC32EDD24D394E12CF12C40E5B42E82
:1011C000AA24A39472DA672B682B692B39F46DDAA1
:1011D000623071058105910508F4BDC066DA60933F
:1011E000BD027093BE028093BF029093C002009133
:1011F000B9021091BA022091BB023091BC02601773
:1012000071078207930740F46093B9027093BA02A2
:101210008093BB029093BC020091B9021091BA0274
:101220002091BB023091BC023B014C01601A710A53
:10123000820A930A940183010A3F110521053105B1
:1012400008F489C06093B9027093BA028093BB021C
:101250009093BC02C0926C03D0926D03E0926E0337
:10126000F0926F0310927003109271031092720348
:10127000109273038091640390916503A0916603BB
:10128000B09167038093680390936903A0936A0306
:10129000B0936B030ADA60936403709365038093E1
:1012A00066039093670301DA2B013C018CE392E023
:1012B000C6DA4AE061E070E080E090E0D1DA83E4F1
:1012C00092E0BDDA4AE0C301B201CADA85E492E0F5
:1012D000B6DA8091640390916503A0916603B091A2
:1012E0006703A3019201281B390B4A0B5B0BCA0150
:1012F000B9014AE0B5DA85E492E0A1DA80916403AD
:1013000090916503A0916603B09167030091680313
:101310001091690320916A0330916B03BC01CD01E8
:10132000601B710B820B930B4AE09ADA87E492E020
:1013300086DABBD94AE094DA89E492E080DA89E37C
:1013400092E07DDAB2D96093640370936503809371
:101350006603909367038091B802882309F48DC0D7
:10136000BCBCADBC812C912C00E010E0E401C75561
:10137000DD4F9A81298188814091A4035091A50372
:101380000417150748F4E091A703F091A803E80DAE
:10139000F91D808321839283A2DA8981A0DA8A8170
:1013A0009EDA0F5F1F4F33E0830E911C053011054D
:1013B000E9F68091A7039091A803892B09F459C0FD
:1013C0008091A4039091A503EC01CC0FDD1FC80F01
:1013D000D91F46D90091A9031091AA032091AB030C
:1013E0003091AC03DC01CB01801B910BA20BB30B42
:1013F000893E9340A105B10560F39090A60391103A
:1014000011C08091AD039091AE03DC01ED91FC9190
:101410006091A7037091A8030280F381E02DAE01D3
:1014200019951EC000E010E00C171D07C9F080914F
:10143000AD039091AE03E091A703F091A803E00FF4
:10144000F11F2081DC01ED91FC91299D9001112477
:101450000190F081E02D632F19950F5F1F4FE4CFAE
:10146000FFD86093A9037093AA038093AB03909372
:10147000AC031092A8021092B80202D8A3CEA8E63C
:10148000B0E0283008F4DECDE0E0F0E0DDCD809182
:10149000A7039091A803009709F0EFD08CE192E0A8
:1014A0009093B0038093AF038FEA93E0AEC9A1E2BB
:1014B0001A2EAA1BBB1BFD010DC0AA1FBB1FEE1FCE
:1014C000FF1FA217B307E407F50720F0A21BB30B19
:1014D000E40BF50B661F771F881F991F1A9469F795
:1014E00060957095809590959B01AC01BD01CF01F1
:1014F000089597FB072E16F4009406D077FD08D0C8
:1015000013D007FC05D03EF4909581959F4F089528
:10151000709561957F4F0895EE0FFF1F881F8BBF59
:101520000790F691E02D1994AA1BBB1B51E107C04F
:10153000AA1FBB1FA617B70710F0A61BB70B881F63
:10154000991F5A95A9F780959095BC01CD010895F2
:10155000CF93DF938230910510F482E090E0E09128
:10156000D003F091D10320E030E0C0E0D0E030972C
:1015700011F14081518148175907C0F048175907A8
:1015800061F482819381209719F09B838A832BC019
:101590009093D1038093D00326C02115310519F013
:1015A0004217530718F49A01BE01DF01EF010280D0
:1015B000F381E02DDCCF2115310509F1281B390B12
:1015C0002430310590F412968D919C9113976115FA
:1015D000710521F0FB019383828304C09093D103B2
:1015E0008093D003FD01329644C0FD01E20FF31F4A
:1015F00081939193225031092D933C933AC02091CD
:10160000CE033091CF03232B41F42091020230917D
:1016100003023093CF032093CE0320910002309138
:1016200001022115310541F42DB73EB74091040266
:1016300050910502241B350BE091CE03F091CF03AE
:10164000E217F307A0F42E1B3F0B2817390778F099
:10165000AC014E5F5F4F2417350748F04E0F5F1FF8
:101660005093CF034093CE038193919302C0E0E067
:10167000F0E0CF01DF91CF9108950F931F93CF93A7
:10168000DF93009709F48CC0FC0132971382128219
:101690000091D0031091D1030115110581F420812F
:1016A0003181820F931F2091CE033091CF032817F1
:1016B000390779F5F093CF03E093CE0371C0D801D9
:1016C00040E050E0AE17BF0750F412962D913C91C8
:1016D0001397AD012115310509F1D901F3CF9D0112
:1016E000DA013383228360817181860F971F82170D
:1016F000930769F4EC0128813981260F371F2E5F8B
:101700003F4F318320838A819B8193838283452B42
:1017100029F4F093D103E093D00342C01396FC93D5
:10172000EE931297ED01499159919E01240F351FB7
:10173000E217F30771F480819181840F951F02965F
:1017400011969C938E938281938113969C938E9392
:101750001297E0E0F0E0D80112968D919C911397DA
:10176000009719F0F8018C01F6CF8D919C919801AA
:101770002E5F3F4F820F931F2091CE033091CF03F6
:101780002817390769F4309729F41092D103109281
:10179000D00302C0138212821093CF030093CE03B2
:1017A000DF91CF911F910F91089581E090E0F8941F
:1017B00000C011E0C5E1D1E000E005C0802FFE01CE
:1017C000ABDE2196011DC631D10780E00807B1F7D5
:0417D000F894FFCFBB
:1017D4000000D203800000000000D901470172011B
:1017E4001F02A30181019501000000007A03470153
:1017F4001C047903CE03E4036103564D4450565F41
:10180400317C305F564D4450560D0A00564D4450BD
:10181400455F003A323A007C005F564D4450450023
:0A18240073686F772020636F6D007A
:00000001FF
